{
  "contractName": "UserContract",
  "abi": [
    {
      "constant": true,
      "inputs": [
        {
          "internalType": "address",
          "name": "",
          "type": "address"
        }
      ],
      "name": "user",
      "outputs": [
        {
          "internalType": "address",
          "name": "addr",
          "type": "address"
        },
        {
          "internalType": "string",
          "name": "name",
          "type": "string"
        }
      ],
      "payable": false,
      "stateMutability": "view",
      "type": "function"
    },
    {
      "constant": false,
      "inputs": [
        {
          "internalType": "address",
          "name": "_address",
          "type": "address"
        },
        {
          "internalType": "string",
          "name": "_name",
          "type": "string"
        }
      ],
      "name": "updateName",
      "outputs": [],
      "payable": false,
      "stateMutability": "nonpayable",
      "type": "function"
    },
    {
      "constant": false,
      "inputs": [
        {
          "internalType": "address",
          "name": "_address",
          "type": "address"
        }
      ],
      "name": "register",
      "outputs": [],
      "payable": false,
      "stateMutability": "nonpayable",
      "type": "function"
    }
  ],
  "bytecode": "0x608060405234801561001057600080fd5b5061061b806100206000396000f3fe608060405234801561001057600080fd5b50600436106100415760003560e01c80634420e4861461004657806381e7e20e1461008a578063b9308d9e1461017a575b600080fd5b6100886004803603602081101561005c57600080fd5b81019080803573ffffffffffffffffffffffffffffffffffffffff169060200190929190505050610255565b005b6100cc600480360360208110156100a057600080fd5b81019080803573ffffffffffffffffffffffffffffffffffffffff169060200190929190505050610372565b604051808373ffffffffffffffffffffffffffffffffffffffff1673ffffffffffffffffffffffffffffffffffffffff16815260200180602001828103825283818151815260200191508051906020019080838360005b8381101561013e578082015181840152602081019050610123565b50505050905090810190601f16801561016b5780820380516001836020036101000a031916815260200191505b50935050505060405180910390f35b6102536004803603604081101561019057600080fd5b81019080803573ffffffffffffffffffffffffffffffffffffffff169060200190929190803590602001906401000000008111156101cd57600080fd5b8201836020820111156101df57600080fd5b8035906020019184600183028401116401000000008311171561020157600080fd5b91908080601f016020809104026020016040519081016040528093929190818152602001838380828437600081840152601f19601f82011690508083019250505050505050919291929050505061044e565b005b3373ffffffffffffffffffffffffffffffffffffffff166000808373ffffffffffffffffffffffffffffffffffffffff1673ffffffffffffffffffffffffffffffffffffffff16815260200190815260200160002060000160009054906101000a900473ffffffffffffffffffffffffffffffffffffffff1673ffffffffffffffffffffffffffffffffffffffff1614156102ef57600080fd5b806000808373ffffffffffffffffffffffffffffffffffffffff1673ffffffffffffffffffffffffffffffffffffffff16815260200190815260200160002060000160006101000a81548173ffffffffffffffffffffffffffffffffffffffff021916908373ffffffffffffffffffffffffffffffffffffffff16021790555050565b60006020528060005260406000206000915090508060000160009054906101000a900473ffffffffffffffffffffffffffffffffffffffff1690806001018054600181600116156101000203166002900480601f0160208091040260200160405190810160405280929190818152602001828054600181600116156101000203166002900480156104445780601f1061041957610100808354040283529160200191610444565b820191906000526020600020905b81548152906001019060200180831161042757829003601f168201915b5050505050905082565b3373ffffffffffffffffffffffffffffffffffffffff166000808473ffffffffffffffffffffffffffffffffffffffff1673ffffffffffffffffffffffffffffffffffffffff16815260200190815260200160002060000160009054906101000a900473ffffffffffffffffffffffffffffffffffffffff1673ffffffffffffffffffffffffffffffffffffffff16146104e757600080fd5b806000808473ffffffffffffffffffffffffffffffffffffffff1673ffffffffffffffffffffffffffffffffffffffff168152602001908152602001600020600101908051906020019061053c929190610541565b505050565b828054600181600116156101000203166002900490600052602060002090601f016020900481019282601f1061058257805160ff19168380011785556105b0565b828001600101855582156105b0579182015b828111156105af578251825591602001919060010190610594565b5b5090506105bd91906105c1565b5090565b6105e391905b808211156105df5760008160009055506001016105c7565b5090565b9056fea265627a7a723158205482f7439d8dacb5b145174c61c6b03d22ac3778446d405e5b05c664f14f54a264736f6c63430005100032",
  "source": "pragma solidity >=0.4.0 <0.6.0;\r\n\r\ncontract UserContract {\r\n    struct UserDetail {\r\n        address addr;\r\n        string name;\r\n    }\r\n\r\n    mapping(address => UserDetail) public user;\r\n\r\n    // ADD NAME \r\n    function updateName(\r\n        address _address,\r\n        string memory _name\r\n\r\n    ) public  {\r\n        require(user[_address].addr == msg.sender);\r\n        user[_address].name = _name;    \r\n    }\r\n\r\n    // REGISTER \r\n    function register(\r\n        address _address\r\n       \r\n    ) public  {\r\n        require(user[_address].addr != msg.sender);\r\n        user[_address].addr = _address;\r\n\r\n    }\r\n\r\n}\r\n",
  "sourcePath": "E:\\FYP\\loginwithmetamask\\starter_kit\\src\\contracts\\UserContract.sol",
  "compiler": {
    "name": "solc",
    "version": "0.5.16+commit.9c3226ce.Emscripten.clang"
  },
  "schemaVersion": "3.4.4",
  "updatedAt": "2022-03-24T20:31:16.406Z",
  "networkType": "ethereum",
  "devdoc": {
    "methods": {}
  },
  "userdoc": {
    "methods": {}
  }
}